:04016A000208000186
:06014B00F5A07F507EC309
:0B015100EF1FAC0670011E4C70F62280
:07015C00D288D2A8D2AF2225
:07016300D28AD2AAD2AF221A
:1001380020B10F7FE87E0312015120B102B2A33033
:03014800B1FD22E4
:0D00060012015C120163C2A012013880FBE0
:03000300020104F3
:10010400C0E0C0D075D000C004C006C0077FE87E40
:100114000312015120B212E5094508600CC2A01275
:10012400014DD2A012014D80EED007D006D004D0EC
:04013400D0D0E03215
:030013000200A246
:1000A200C0E0C0D075D000C000C004C006C0077F49
:0900B200E87E0312015120B33C69
:1000BB0075A0FE12014D750A00AFA07801EF088004
:1000CB000123D8FD12014B050AE50AC3940740E949
:1000DB00750A00E50AC3940750DCAFA07801EF085E
:0C00EB00800103D8FD12014B050A80E7DC
:0D00F700D007D006D004D000D0D0D0E03229
:03000000020016E5
:0C001600787FE4F6D8FD75810A02005DD9
:10002200020006E493A3F8E493A34003F68001F2EE
:1000320008DFF48029E493A3F85407240CC8C333DF
:10004200C4540F4420C8834004F456800146F6DFAE
:10005200E4800B010204081020408090016AE47ED3
:10006200019360BCA3FF543F30E509541FFEE493A3
:10007200A360010ECF54C025E060A840B8E493A36A
:10008200FAE493A3F8E493A3C8C582C8CAC583CA95
:10009200F0A3C8C582C8CAC583CADFE9DEE780BE4D
:01016E000090
:00000001FF
