:04016200020800018E
:06014300F5A07F507EC311
:0B014900EF1FAC0670011E4C70F62288
:07015400D288D2A8D2AF222D
:07015B00D28AD2AAD2AF2222
:0A00060012015412015BC2A080FC3D
:03000300020117E0
:10011700C0E0C0D075D000C004C006C0077FE87E2D
:100127000312014920B20A30B307B2A01201458079
:0C013700F6D007D006D004D0D0D0E032C3
:030013000200A246
:1000A200C0E0C0D075D000C000C004C006C0077F49
:0900B200E87E0312014920B34F5E
:1000BB0075A0FE12014530B246750C00AFA0780159
:1000CB00EF08800123D8FD12014320B20575A0FF74
:1000DB008009050CE50CC3940740E1750C00E50C99
:1000EB00C3940750D1AFA07801EF08800103D8FD6E
:0F00FB0012014320B20575A0FF80BB050C80DF0A
:0D010A00D007D006D004D000D0D0D0E03215
:03000000020016E5
:0C001600787FE4F6D8FD75810C02005DD7
:10002200020006E493A3F8E493A34003F68001F2EE
:1000320008DFF48029E493A3F85407240CC8C333DF
:10004200C4540F4420C8834004F456800146F6DFAE
:10005200E4800B0102040810204080900162E47EDB
:10006200019360BCA3FF543F30E509541FFEE493A3
:10007200A360010ECF54C025E060A840B8E493A36A
:10008200FAE493A3F8E493A3C8C582C8CAC583CA95
:10009200F0A3C8C582C8CAC583CADFE9DEE780BE4D
:010166000098
:00000001FF
