:100003000F0A7777772E6E75632E6564752E636E90
:070013000A010900010800C9
:100112007F0A7E147D147CF8DCFEDDFADEF6DFF267
:0101220022BA
:1000EE007C277D10120100EF1FAC0670011E4C70B4
:0100FE00F60B
:0100FF0022DE
:1000B200759850438920758DF3758BF3758780D2BF
:1000C2008ED2AFD2AC120112E4F509E508600874D1
:1000D2000A2509F8E6F5997F017E001200EE7508FF
:0C00E200010509E509C3940F40E180D935
:03002300020123B4
:0E012300309802C298309905C29975080032D2
:03000000020026D5
:0C002600787FE4F6D8FD75811802006DAB
:10010000EF8DF0A4A8F0CF8CF0A428CE8DF0A42E13
:02011000FE22CD
:100032000200B2E493A3F8E493A34003F68001F232
:1000420008DFF48029E493A3F85407240CC8C333CF
:10005200C4540F4420C8834004F456800146F6DF9E
:10006200E4800B0102040810204080900003E47E2B
:10007200019360BCA3FF543F30E509541FFEE49393
:10008200A360010ECF54C025E060A840B8E493A35A
:10009200FAE493A3F8E493A3C8C582C8CAC583CA85
:1000A200F0A3C8C582C8CAC583CADFE9DEE780BE3D
:01001A0000E5
:00000001FF
