:04017300020800017D
:06015400F5A07F507EC300
:0B015A00EF1FAC0670011E4C70F62277
:07016500D288D2A8D2AF221C
:07016C00D28AD2AAD2AF2211
:1001400075080075090120B10A7FE87E0312015A83
:0401500030B1FD22AB
:0D00060012016512016CC2A012014080FBC6
:0300030002010CEB
:10010C00C0E0C0D075D000C004C006C0077FE87E38
:10011C000312015A20B212E5094508600CC2A01264
:10012C000156D2A012015680EED007D006D004D0D2
:04013C00D0D0E0320D
:030013000200A246
:1000A200C0E0C0D075D000C000C004C006C0077F49
:1000B200E87E0312015A20B344E509640145087041
:0100C2003C01
:1000C30075A0FE120156750C00AFA07801EF0880F1
:1000D3000123D8FD120154050CE50CC3940740E934
:1000E300750C00E50CC3940750DCAFA07801EF0852
:0C00F300800103D8FD120154050C80E7C9
:0D00FF00D007D006D004D000D0D0D0E03221
:03000000020016E5
:0C001600787FE4F6D8FD75810C02005DD7
:10002200020006E493A3F8E493A34003F68001F2EE
:1000320008DFF48029E493A3F85407240CC8C333DF
:10004200C4540F4420C8834004F456800146F6DFAE
:10005200E4800B0102040810204080900173E47ECA
:10006200019360BCA3FF543F30E509541FFEE493A3
:10007200A360010ECF54C025E060A840B8E493A36A
:10008200FAE493A3F8E493A3C8C582C8CAC583CA95
:10009200F0A3C8C582C8CAC583CADFE9DEE780BE4D
:010177000087
:00000001FF
