:1002FB000C092020323031392D352D3136000C16BA
:0C030B0020202030303A30303A303000F2
:04028500AD087F0938
:10028900ED75F00A84F529ED75F00A8485F02AEFF9
:1002990024C0FF120331E5292430FF12033BE52A6C
:0602A9002430FF02033BBC
:0402D9007F057E001F
:1002DD00D3EF9400EE940040147D6E7C00ED1D7004
:0D02ED00011CED4C70F7EF1F70E61E80E362
:0102FA0022E1
:10000E00C2B320B14D1202D920B147052430B1FD43
:10001E00E524B4010CC28C7FCA1203317F0F120388
:10002E0031E524B4020CC28C7FC71203317F0F124C
:10003E000331E524B4030CC28C7FC41203317F0F4D
:10004E00120331E524B4040A7F0C120331E4F524C3
:10005E00D28CE524700302012520B0561202D9205D
:10006E00B05030B0FDE524B401120508E508B43CEB
:10007E0003E4F5081202857FCA120331E524B402A7
:10008E00160523E523B43C03E4F523AD237F0612C6
:10009E0002897FC7120331E524B403160522E52237
:1000AE00B41803E4F522AD227F031202897FC41235
:1000BE00033120B2621202D920B25C30B2FDE524C7
:1000CE00B401161508C3E5086480948050037508C2
:1000DE003B1202857FCA120331E524B4021A15239E
:1000EE00C3E52364809480500375233BAD237F06C4
:1000FE001202897FC7120331E524B4031A1522C3F5
:10010E00E522648094805003752217AD227F03127E
:08011E0002897FC412033122A3
:10022900120318E4F527F52874092528F8E6FF12C2
:10023900033B0528E52870020527C3940BE527949D
:100249000040E57FC0120331E4F527F5287416252F
:1002590028F8E6FF12033B0528E52870020527C3A5
:10026900940BE527940040E5758901758C3C758AE6
:0C027900A6D2AFD2A9D28C12000E80FBDE
:03000B000201B23D
:1001B200C0E0C0F0C083C082C0D075D000C000C013
:1001C20001C002C003C004C005C006C007758C3C54
:1001D200758AA60515E51564147031F5150508E54F
:1001E20008643C7024F5080523E523B43C14752308
:1001F200000522E522B41803752200AD227F031206
:100202000289AD237F06120289120285D007D00629
:10021200D005D004D003D002D001D000D0D0D082FB
:07022200D083D0F0D0E032E0
:1002AF00C2A58F807F017E001202C0D2A77F057E7C
:0102BF00003E
:1002C000D3EF9400EE9400400F7DC77C01DCFEDD8F
:0802D000FAEF1F70EB1E80E83D
:0102D8002203
:0A033100C2A7C2A61202AFC2A722A3
:0A033B00C2A7D2A61202AFC2A72289
:100318007F381203317F0C1203317F061203317FBD
:09032800011203317F8002033150
:03000000020126D4
:0C012600787FE4F6D8FD75812A02016D97
:10013200020229E493A3F8E493A34003F68001F2B8
:1001420008DFF48029E493A3F85407240CC8C333CE
:10015200C4540F4420C8834004F456800146F6DF9D
:10016200E4800B01020408102040809002FBE47E30
:10017200019360BCA3FF543F30E509541FFEE49392
:10018200A360010ECF54C025E060A840B8E493A359
:10019200FAE493A3F8E493A3C8C582C8CAC583CA84
:1001A200F0A3C8C582C8CAC583CADFE9DEE780BE3C
:0103170000E5
:00000001FF
